{
	"state.sol": {
		"demo": {
			"abi": [
				{
					"inputs": [
						{
							"internalType": "uint256",
							"name": "new_count",
							"type": "uint256"
						}
					],
					"stateMutability": "nonpayable",
					"type": "constructor"
				},
				{
					"inputs": [],
					"name": "count",
					"outputs": [
						{
							"internalType": "uint256",
							"name": "",
							"type": "uint256"
						}
					],
					"stateMutability": "view",
					"type": "function"
				},
				{
					"inputs": [
						{
							"internalType": "uint256",
							"name": "",
							"type": "uint256"
						}
					],
					"name": "roll_no",
					"outputs": [
						{
							"internalType": "string",
							"name": "",
							"type": "string"
						}
					],
					"stateMutability": "view",
					"type": "function"
				},
				{
					"inputs": [
						{
							"internalType": "uint256",
							"name": "no",
							"type": "uint256"
						},
						{
							"internalType": "string",
							"name": "name",
							"type": "string"
						}
					],
					"name": "setter",
					"outputs": [],
					"stateMutability": "nonpayable",
					"type": "function"
				},
				{
					"inputs": [],
					"name": "store",
					"outputs": [
						{
							"internalType": "uint256",
							"name": "",
							"type": "uint256"
						}
					],
					"stateMutability": "pure",
					"type": "function"
				}
			],
			"devdoc": {
				"kind": "dev",
				"methods": {},
				"version": 1
			},
			"evm": {
				"assembly": "    /* \"state.sol\":70:476  contract demo {... */\n  mstore(0x40, 0x80)\n    /* \"state.sol\":273:340  constructor(uint new_count) ... */\n  callvalue\n  dup1\n  iszero\n  tag_1\n  jumpi\n  0x00\n  dup1\n  revert\ntag_1:\n  pop\n  mload(0x40)\n  sub(codesize, bytecodeSize)\n  dup1\n  bytecodeSize\n  dup4\n  codecopy\n  dup2\n  dup2\n  add\n  0x40\n  mstore\n  dup2\n  add\n  swap1\n  tag_2\n  swap2\n  swap1\n  tag_3\n  jump\t// in\ntag_2:\n    /* \"state.sol\":324:333  new_count */\n  dup1\n    /* \"state.sol\":316:321  count */\n  0x01\n    /* \"state.sol\":316:333  count = new_count */\n  dup2\n  swap1\n  sstore\n  pop\n    /* \"state.sol\":273:340  constructor(uint new_count) ... */\n  pop\n    /* \"state.sol\":70:476  contract demo {... */\n  jump(tag_6)\n    /* \"#utility.yul\":88:205   */\ntag_8:\n    /* \"#utility.yul\":197:198   */\n  0x00\n    /* \"#utility.yul\":194:195   */\n  dup1\n    /* \"#utility.yul\":187:199   */\n  revert\n    /* \"#utility.yul\":334:411   */\ntag_10:\n    /* \"#utility.yul\":371:378   */\n  0x00\n    /* \"#utility.yul\":400:405   */\n  dup2\n    /* \"#utility.yul\":389:405   */\n  swap1\n  pop\n    /* \"#utility.yul\":334:411   */\n  swap2\n  swap1\n  pop\n  jump\t// out\n    /* \"#utility.yul\":417:539   */\ntag_11:\n    /* \"#utility.yul\":490:514   */\n  tag_19\n    /* \"#utility.yul\":508:513   */\n  dup2\n    /* \"#utility.yul\":490:514   */\n  tag_10\n  jump\t// in\ntag_19:\n    /* \"#utility.yul\":483:488   */\n  dup2\n    /* \"#utility.yul\":480:515   */\n  eq\n    /* \"#utility.yul\":470:533   */\n  tag_20\n  jumpi\n    /* \"#utility.yul\":529:530   */\n  0x00\n    /* \"#utility.yul\":526:527   */\n  dup1\n    /* \"#utility.yul\":519:531   */\n  revert\n    /* \"#utility.yul\":470:533   */\ntag_20:\n    /* \"#utility.yul\":417:539   */\n  pop\n  jump\t// out\n    /* \"#utility.yul\":545:688   */\ntag_12:\n    /* \"#utility.yul\":602:607   */\n  0x00\n    /* \"#utility.yul\":633:639   */\n  dup2\n    /* \"#utility.yul\":627:640   */\n  mload\n    /* \"#utility.yul\":618:640   */\n  swap1\n  pop\n    /* \"#utility.yul\":649:682   */\n  tag_22\n    /* \"#utility.yul\":676:681   */\n  dup2\n    /* \"#utility.yul\":649:682   */\n  tag_11\n  jump\t// in\ntag_22:\n    /* \"#utility.yul\":545:688   */\n  swap3\n  swap2\n  pop\n  pop\n  jump\t// out\n    /* \"#utility.yul\":694:1045   */\ntag_3:\n    /* \"#utility.yul\":764:770   */\n  0x00\n    /* \"#utility.yul\":813:815   */\n  0x20\n    /* \"#utility.yul\":801:810   */\n  dup3\n    /* \"#utility.yul\":792:799   */\n  dup5\n    /* \"#utility.yul\":788:811   */\n  sub\n    /* \"#utility.yul\":784:816   */\n  slt\n    /* \"#utility.yul\":781:900   */\n  iszero\n  tag_24\n  jumpi\n    /* \"#utility.yul\":819:898   */\n  tag_25\n  tag_8\n  jump\t// in\ntag_25:\n    /* \"#utility.yul\":781:900   */\ntag_24:\n    /* \"#utility.yul\":939:940   */\n  0x00\n    /* \"#utility.yul\":964:1028   */\n  tag_26\n    /* \"#utility.yul\":1020:1027   */\n  dup5\n    /* \"#utility.yul\":1011:1017   */\n  dup3\n    /* \"#utility.yul\":1000:1009   */\n  dup6\n    /* \"#utility.yul\":996:1018   */\n  add\n    /* \"#utility.yul\":964:1028   */\n  tag_12\n  jump\t// in\ntag_26:\n    /* \"#utility.yul\":954:1028   */\n  swap2\n  pop\n    /* \"#utility.yul\":910:1038   */\n  pop\n    /* \"#utility.yul\":694:1045   */\n  swap3\n  swap2\n  pop\n  pop\n  jump\t// out\n    /* \"state.sol\":70:476  contract demo {... */\ntag_6:\n  dataSize(sub_0)\n  dup1\n  dataOffset(sub_0)\n  0x00\n  codecopy\n  0x00\n  return\nstop\n\nsub_0: assembly {\n        /* \"state.sol\":70:476  contract demo {... */\n      mstore(0x40, 0x80)\n      callvalue\n      dup1\n      iszero\n      tag_1\n      jumpi\n      0x00\n      dup1\n      revert\n    tag_1:\n      pop\n      jumpi(tag_2, lt(calldatasize, 0x04))\n      shr(0xe0, calldataload(0x00))\n      dup1\n      0x06661abd\n      eq\n      tag_3\n      jumpi\n      dup1\n      0x898786ac\n      eq\n      tag_4\n      jumpi\n      dup1\n      0x975057e7\n      eq\n      tag_5\n      jumpi\n      dup1\n      0xbcb131c9\n      eq\n      tag_6\n      jumpi\n    tag_2:\n      0x00\n      dup1\n      revert\n        /* \"state.sol\":126:143  uint public count */\n    tag_3:\n      tag_7\n      tag_8\n      jump\t// in\n    tag_7:\n      mload(0x40)\n      tag_9\n      swap2\n      swap1\n      tag_10\n      jump\t// in\n    tag_9:\n      mload(0x40)\n      dup1\n      swap2\n      sub\n      swap1\n      return\n        /* \"state.sol\":346:382  mapping(uint=>string) public roll_no */\n    tag_4:\n      tag_11\n      0x04\n      dup1\n      calldatasize\n      sub\n      dup2\n      add\n      swap1\n      tag_12\n      swap2\n      swap1\n      tag_13\n      jump\t// in\n    tag_12:\n      tag_14\n      jump\t// in\n    tag_11:\n      mload(0x40)\n      tag_15\n      swap2\n      swap1\n      tag_16\n      jump\t// in\n    tag_15:\n      mload(0x40)\n      dup1\n      swap2\n      sub\n      swap1\n      return\n        /* \"state.sol\":172:267  function store() pure public returns(uint){... */\n    tag_5:\n      tag_17\n      tag_18\n      jump\t// in\n    tag_17:\n      mload(0x40)\n      tag_19\n      swap2\n      swap1\n      tag_10\n      jump\t// in\n    tag_19:\n      mload(0x40)\n      dup1\n      swap2\n      sub\n      swap1\n      return\n        /* \"state.sol\":389:474  function setter(uint no, string memory name) public {... */\n    tag_6:\n      tag_20\n      0x04\n      dup1\n      calldatasize\n      sub\n      dup2\n      add\n      swap1\n      tag_21\n      swap2\n      swap1\n      tag_22\n      jump\t// in\n    tag_21:\n      tag_23\n      jump\t// in\n    tag_20:\n      stop\n        /* \"state.sol\":126:143  uint public count */\n    tag_8:\n      sload(0x01)\n      dup2\n      jump\t// out\n        /* \"state.sol\":346:382  mapping(uint=>string) public roll_no */\n    tag_14:\n      mstore(0x20, 0x02)\n      dup1\n      0x00\n      mstore\n      keccak256(0x00, 0x40)\n      0x00\n      swap2\n      pop\n      swap1\n      pop\n      dup1\n      sload\n      tag_24\n      swap1\n      tag_25\n      jump\t// in\n    tag_24:\n      dup1\n      0x1f\n      add\n      0x20\n      dup1\n      swap2\n      div\n      mul\n      0x20\n      add\n      mload(0x40)\n      swap1\n      dup2\n      add\n      0x40\n      mstore\n      dup1\n      swap3\n      swap2\n      swap1\n      dup2\n      dup2\n      mstore\n      0x20\n      add\n      dup3\n      dup1\n      sload\n      tag_26\n      swap1\n      tag_25\n      jump\t// in\n    tag_26:\n      dup1\n      iszero\n      tag_27\n      jumpi\n      dup1\n      0x1f\n      lt\n      tag_28\n      jumpi\n      0x0100\n      dup1\n      dup4\n      sload\n      div\n      mul\n      dup4\n      mstore\n      swap2\n      0x20\n      add\n      swap2\n      jump(tag_27)\n    tag_28:\n      dup3\n      add\n      swap2\n      swap1\n      0x00\n      mstore\n      keccak256(0x00, 0x20)\n      swap1\n    tag_29:\n      dup2\n      sload\n      dup2\n      mstore\n      swap1\n      0x01\n      add\n      swap1\n      0x20\n      add\n      dup1\n      dup4\n      gt\n      tag_29\n      jumpi\n      dup3\n      swap1\n      sub\n      0x1f\n      and\n      dup3\n      add\n      swap2\n    tag_27:\n      pop\n      pop\n      pop\n      pop\n      pop\n      dup2\n      jump\t// out\n        /* \"state.sol\":172:267  function store() pure public returns(uint){... */\n    tag_18:\n        /* \"state.sol\":209:213  uint */\n      0x00\n        /* \"state.sol\":224:233  uint year */\n      dup1\n        /* \"state.sol\":234:238  2002 */\n      0x07d2\n        /* \"state.sol\":224:238  uint year=2002 */\n      swap1\n      pop\n        /* \"state.sol\":255:259  year */\n      dup1\n        /* \"state.sol\":248:259  return year */\n      swap2\n      pop\n      pop\n        /* \"state.sol\":172:267  function store() pure public returns(uint){... */\n      swap1\n      jump\t// out\n        /* \"state.sol\":389:474  function setter(uint no, string memory name) public {... */\n    tag_23:\n        /* \"state.sol\":463:467  name */\n      dup1\n        /* \"state.sol\":451:458  roll_no */\n      0x02\n        /* \"state.sol\":451:462  roll_no[no] */\n      0x00\n        /* \"state.sol\":459:461  no */\n      dup5\n        /* \"state.sol\":451:462  roll_no[no] */\n      dup2\n      mstore\n      0x20\n      add\n      swap1\n      dup2\n      mstore\n      0x20\n      add\n      0x00\n      keccak256\n        /* \"state.sol\":451:467  roll_no[no]=name */\n      swap1\n      dup2\n      tag_32\n      swap2\n      swap1\n      tag_33\n      jump\t// in\n    tag_32:\n      pop\n        /* \"state.sol\":389:474  function setter(uint no, string memory name) public {... */\n      pop\n      pop\n      jump\t// out\n        /* \"#utility.yul\":7:84   */\n    tag_34:\n        /* \"#utility.yul\":44:51   */\n      0x00\n        /* \"#utility.yul\":73:78   */\n      dup2\n        /* \"#utility.yul\":62:78   */\n      swap1\n      pop\n        /* \"#utility.yul\":7:84   */\n      swap2\n      swap1\n      pop\n      jump\t// out\n        /* \"#utility.yul\":90:208   */\n    tag_35:\n        /* \"#utility.yul\":177:201   */\n      tag_74\n        /* \"#utility.yul\":195:200   */\n      dup2\n        /* \"#utility.yul\":177:201   */\n      tag_34\n      jump\t// in\n    tag_74:\n        /* \"#utility.yul\":172:175   */\n      dup3\n        /* \"#utility.yul\":165:202   */\n      mstore\n        /* \"#utility.yul\":90:208   */\n      pop\n      pop\n      jump\t// out\n        /* \"#utility.yul\":214:436   */\n    tag_10:\n        /* \"#utility.yul\":307:311   */\n      0x00\n        /* \"#utility.yul\":345:347   */\n      0x20\n        /* \"#utility.yul\":334:343   */\n      dup3\n        /* \"#utility.yul\":330:348   */\n      add\n        /* \"#utility.yul\":322:348   */\n      swap1\n      pop\n        /* \"#utility.yul\":358:429   */\n      tag_76\n        /* \"#utility.yul\":426:427   */\n      0x00\n        /* \"#utility.yul\":415:424   */\n      dup4\n        /* \"#utility.yul\":411:428   */\n      add\n        /* \"#utility.yul\":402:408   */\n      dup5\n        /* \"#utility.yul\":358:429   */\n      tag_35\n      jump\t// in\n    tag_76:\n        /* \"#utility.yul\":214:436   */\n      swap3\n      swap2\n      pop\n      pop\n      jump\t// out\n        /* \"#utility.yul\":442:517   */\n    tag_36:\n        /* \"#utility.yul\":475:481   */\n      0x00\n        /* \"#utility.yul\":508:510   */\n      0x40\n        /* \"#utility.yul\":502:511   */\n      mload\n        /* \"#utility.yul\":492:511   */\n      swap1\n      pop\n        /* \"#utility.yul\":442:517   */\n      swap1\n      jump\t// out\n        /* \"#utility.yul\":523:640   */\n    tag_37:\n        /* \"#utility.yul\":632:633   */\n      0x00\n        /* \"#utility.yul\":629:630   */\n      dup1\n        /* \"#utility.yul\":622:634   */\n      revert\n        /* \"#utility.yul\":646:763   */\n    tag_38:\n        /* \"#utility.yul\":755:756   */\n      0x00\n        /* \"#utility.yul\":752:753   */\n      dup1\n        /* \"#utility.yul\":745:757   */\n      revert\n        /* \"#utility.yul\":769:891   */\n    tag_39:\n        /* \"#utility.yul\":842:866   */\n      tag_81\n        /* \"#utility.yul\":860:865   */\n      dup2\n        /* \"#utility.yul\":842:866   */\n      tag_34\n      jump\t// in\n    tag_81:\n        /* \"#utility.yul\":835:840   */\n      dup2\n        /* \"#utility.yul\":832:867   */\n      eq\n        /* \"#utility.yul\":822:885   */\n      tag_82\n      jumpi\n        /* \"#utility.yul\":881:882   */\n      0x00\n        /* \"#utility.yul\":878:879   */\n      dup1\n        /* \"#utility.yul\":871:883   */\n      revert\n        /* \"#utility.yul\":822:885   */\n    tag_82:\n        /* \"#utility.yul\":769:891   */\n      pop\n      jump\t// out\n        /* \"#utility.yul\":897:1036   */\n    tag_40:\n        /* \"#utility.yul\":943:948   */\n      0x00\n        /* \"#utility.yul\":981:987   */\n      dup2\n        /* \"#utility.yul\":968:988   */\n      calldataload\n        /* \"#utility.yul\":959:988   */\n      swap1\n      pop\n        /* \"#utility.yul\":997:1030   */\n      tag_84\n        /* \"#utility.yul\":1024:1029   */\n      dup2\n        /* \"#utility.yul\":997:1030   */\n      tag_39\n      jump\t// in\n    tag_84:\n        /* \"#utility.yul\":897:1036   */\n      swap3\n      swap2\n      pop\n      pop\n      jump\t// out\n        /* \"#utility.yul\":1042:1371   */\n    tag_13:\n        /* \"#utility.yul\":1101:1107   */\n      0x00\n        /* \"#utility.yul\":1150:1152   */\n      0x20\n        /* \"#utility.yul\":1138:1147   */\n      dup3\n        /* \"#utility.yul\":1129:1136   */\n      dup5\n        /* \"#utility.yul\":1125:1148   */\n      sub\n        /* \"#utility.yul\":1121:1153   */\n      slt\n        /* \"#utility.yul\":1118:1237   */\n      iszero\n      tag_86\n      jumpi\n        /* \"#utility.yul\":1156:1235   */\n      tag_87\n      tag_37\n      jump\t// in\n    tag_87:\n        /* \"#utility.yul\":1118:1237   */\n    tag_86:\n        /* \"#utility.yul\":1276:1277   */\n      0x00\n        /* \"#utility.yul\":1301:1354   */\n      tag_88\n        /* \"#utility.yul\":1346:1353   */\n      dup5\n        /* \"#utility.yul\":1337:1343   */\n      dup3\n        /* \"#utility.yul\":1326:1335   */\n      dup6\n        /* \"#utility.yul\":1322:1344   */\n      add\n        /* \"#utility.yul\":1301:1354   */\n      tag_40\n      jump\t// in\n    tag_88:\n        /* \"#utility.yul\":1291:1354   */\n      swap2\n      pop\n        /* \"#utility.yul\":1247:1364   */\n      pop\n        /* \"#utility.yul\":1042:1371   */\n      swap3\n      swap2\n      pop\n      pop\n      jump\t// out\n        /* \"#utility.yul\":1377:1476   */\n    tag_41:\n        /* \"#utility.yul\":1429:1435   */\n      0x00\n        /* \"#utility.yul\":1463:1468   */\n      dup2\n        /* \"#utility.yul\":1457:1469   */\n      mload\n        /* \"#utility.yul\":1447:1469   */\n      swap1\n      pop\n        /* \"#utility.yul\":1377:1476   */\n      swap2\n      swap1\n      pop\n      jump\t// out\n        /* \"#utility.yul\":1482:1651   */\n    tag_42:\n        /* \"#utility.yul\":1566:1577   */\n      0x00\n        /* \"#utility.yul\":1600:1606   */\n      dup3\n        /* \"#utility.yul\":1595:1598   */\n      dup3\n        /* \"#utility.yul\":1588:1607   */\n      mstore\n        /* \"#utility.yul\":1640:1644   */\n      0x20\n        /* \"#utility.yul\":1635:1638   */\n      dup3\n        /* \"#utility.yul\":1631:1645   */\n      add\n        /* \"#utility.yul\":1616:1645   */\n      swap1\n      pop\n        /* \"#utility.yul\":1482:1651   */\n      swap3\n      swap2\n      pop\n      pop\n      jump\t// out\n        /* \"#utility.yul\":1657:1903   */\n    tag_43:\n        /* \"#utility.yul\":1738:1739   */\n      0x00\n        /* \"#utility.yul\":1748:1861   */\n    tag_92:\n        /* \"#utility.yul\":1762:1768   */\n      dup4\n        /* \"#utility.yul\":1759:1760   */\n      dup2\n        /* \"#utility.yul\":1756:1769   */\n      lt\n        /* \"#utility.yul\":1748:1861   */\n      iszero\n      tag_94\n      jumpi\n        /* \"#utility.yul\":1847:1848   */\n      dup1\n        /* \"#utility.yul\":1842:1845   */\n      dup3\n        /* \"#utility.yul\":1838:1849   */\n      add\n        /* \"#utility.yul\":1832:1850   */\n      mload\n        /* \"#utility.yul\":1828:1829   */\n      dup2\n        /* \"#utility.yul\":1823:1826   */\n      dup5\n        /* \"#utility.yul\":1819:1830   */\n      add\n        /* \"#utility.yul\":1812:1851   */\n      mstore\n        /* \"#utility.yul\":1784:1786   */\n      0x20\n        /* \"#utility.yul\":1781:1782   */\n      dup2\n        /* \"#utility.yul\":1777:1787   */\n      add\n        /* \"#utility.yul\":1772:1787   */\n      swap1\n      pop\n        /* \"#utility.yul\":1748:1861   */\n      jump(tag_92)\n    tag_94:\n        /* \"#utility.yul\":1895:1896   */\n      0x00\n        /* \"#utility.yul\":1886:1892   */\n      dup5\n        /* \"#utility.yul\":1881:1884   */\n      dup5\n        /* \"#utility.yul\":1877:1893   */\n      add\n        /* \"#utility.yul\":1870:1897   */\n      mstore\n        /* \"#utility.yul\":1719:1903   */\n      pop\n        /* \"#utility.yul\":1657:1903   */\n      pop\n      pop\n      pop\n      jump\t// out\n        /* \"#utility.yul\":1909:2011   */\n    tag_44:\n        /* \"#utility.yul\":1950:1956   */\n      0x00\n        /* \"#utility.yul\":2001:2003   */\n      0x1f\n        /* \"#utility.yul\":1997:2004   */\n      not\n        /* \"#utility.yul\":1992:1994   */\n      0x1f\n        /* \"#utility.yul\":1985:1990   */\n      dup4\n        /* \"#utility.yul\":1981:1995   */\n      add\n        /* \"#utility.yul\":1977:2005   */\n      and\n        /* \"#utility.yul\":1967:2005   */\n      swap1\n      pop\n        /* \"#utility.yul\":1909:2011   */\n      swap2\n      swap1\n      pop\n      jump\t// out\n        /* \"#utility.yul\":2017:2394   */\n    tag_45:\n        /* \"#utility.yul\":2105:2108   */\n      0x00\n        /* \"#utility.yul\":2133:2172   */\n      tag_97\n        /* \"#utility.yul\":2166:2171   */\n      dup3\n        /* \"#utility.yul\":2133:2172   */\n      tag_41\n      jump\t// in\n    tag_97:\n        /* \"#utility.yul\":2188:2259   */\n      tag_98\n        /* \"#utility.yul\":2252:2258   */\n      dup2\n        /* \"#utility.yul\":2247:2250   */\n      dup6\n        /* \"#utility.yul\":2188:2259   */\n      tag_42\n      jump\t// in\n    tag_98:\n        /* \"#utility.yul\":2181:2259   */\n      swap4\n      pop\n        /* \"#utility.yul\":2268:2333   */\n      tag_99\n        /* \"#utility.yul\":2326:2332   */\n      dup2\n        /* \"#utility.yul\":2321:2324   */\n      dup6\n        /* \"#utility.yul\":2314:2318   */\n      0x20\n        /* \"#utility.yul\":2307:2312   */\n      dup7\n        /* \"#utility.yul\":2303:2319   */\n      add\n        /* \"#utility.yul\":2268:2333   */\n      tag_43\n      jump\t// in\n    tag_99:\n        /* \"#utility.yul\":2358:2387   */\n      tag_100\n        /* \"#utility.yul\":2380:2386   */\n      dup2\n        /* \"#utility.yul\":2358:2387   */\n      tag_44\n      jump\t// in\n    tag_100:\n        /* \"#utility.yul\":2353:2356   */\n      dup5\n        /* \"#utility.yul\":2349:2388   */\n      add\n        /* \"#utility.yul\":2342:2388   */\n      swap2\n      pop\n        /* \"#utility.yul\":2109:2394   */\n      pop\n        /* \"#utility.yul\":2017:2394   */\n      swap3\n      swap2\n      pop\n      pop\n      jump\t// out\n        /* \"#utility.yul\":2400:2713   */\n    tag_16:\n        /* \"#utility.yul\":2513:2517   */\n      0x00\n        /* \"#utility.yul\":2551:2553   */\n      0x20\n        /* \"#utility.yul\":2540:2549   */\n      dup3\n        /* \"#utility.yul\":2536:2554   */\n      add\n        /* \"#utility.yul\":2528:2554   */\n      swap1\n      pop\n        /* \"#utility.yul\":2600:2609   */\n      dup2\n        /* \"#utility.yul\":2594:2598   */\n      dup2\n        /* \"#utility.yul\":2590:2610   */\n      sub\n        /* \"#utility.yul\":2586:2587   */\n      0x00\n        /* \"#utility.yul\":2575:2584   */\n      dup4\n        /* \"#utility.yul\":2571:2588   */\n      add\n        /* \"#utility.yul\":2564:2611   */\n      mstore\n        /* \"#utility.yul\":2628:2706   */\n      tag_102\n        /* \"#utility.yul\":2701:2705   */\n      dup2\n        /* \"#utility.yul\":2692:2698   */\n      dup5\n        /* \"#utility.yul\":2628:2706   */\n      tag_45\n      jump\t// in\n    tag_102:\n        /* \"#utility.yul\":2620:2706   */\n      swap1\n      pop\n        /* \"#utility.yul\":2400:2713   */\n      swap3\n      swap2\n      pop\n      pop\n      jump\t// out\n        /* \"#utility.yul\":2719:2836   */\n    tag_46:\n        /* \"#utility.yul\":2828:2829   */\n      0x00\n        /* \"#utility.yul\":2825:2826   */\n      dup1\n        /* \"#utility.yul\":2818:2830   */\n      revert\n        /* \"#utility.yul\":2842:2959   */\n    tag_47:\n        /* \"#utility.yul\":2951:2952   */\n      0x00\n        /* \"#utility.yul\":2948:2949   */\n      dup1\n        /* \"#utility.yul\":2941:2953   */\n      revert\n        /* \"#utility.yul\":2965:3145   */\n    tag_48:\n        /* \"#utility.yul\":3013:3090   */\n      0x4e487b7100000000000000000000000000000000000000000000000000000000\n        /* \"#utility.yul\":3010:3011   */\n      0x00\n        /* \"#utility.yul\":3003:3091   */\n      mstore\n        /* \"#utility.yul\":3110:3114   */\n      0x41\n        /* \"#utility.yul\":3107:3108   */\n      0x04\n        /* \"#utility.yul\":3100:3115   */\n      mstore\n        /* \"#utility.yul\":3134:3138   */\n      0x24\n        /* \"#utility.yul\":3131:3132   */\n      0x00\n        /* \"#utility.yul\":3124:3139   */\n      revert\n        /* \"#utility.yul\":3151:3432   */\n    tag_49:\n        /* \"#utility.yul\":3234:3261   */\n      tag_107\n        /* \"#utility.yul\":3256:3260   */\n      dup3\n        /* \"#utility.yul\":3234:3261   */\n      tag_44\n      jump\t// in\n    tag_107:\n        /* \"#utility.yul\":3226:3232   */\n      dup2\n        /* \"#utility.yul\":3222:3262   */\n      add\n        /* \"#utility.yul\":3364:3370   */\n      dup2\n        /* \"#utility.yul\":3352:3362   */\n      dup2\n        /* \"#utility.yul\":3349:3371   */\n      lt\n        /* \"#utility.yul\":3328:3346   */\n      0xffffffffffffffff\n        /* \"#utility.yul\":3316:3326   */\n      dup3\n        /* \"#utility.yul\":3313:3347   */\n      gt\n        /* \"#utility.yul\":3310:3372   */\n      or\n        /* \"#utility.yul\":3307:3395   */\n      iszero\n      tag_108\n      jumpi\n        /* \"#utility.yul\":3375:3393   */\n      tag_109\n      tag_48\n      jump\t// in\n    tag_109:\n        /* \"#utility.yul\":3307:3395   */\n    tag_108:\n        /* \"#utility.yul\":3415:3425   */\n      dup1\n        /* \"#utility.yul\":3411:3413   */\n      0x40\n        /* \"#utility.yul\":3404:3426   */\n      mstore\n        /* \"#utility.yul\":3194:3432   */\n      pop\n        /* \"#utility.yul\":3151:3432   */\n      pop\n      pop\n      jump\t// out\n        /* \"#utility.yul\":3438:3567   */\n    tag_50:\n        /* \"#utility.yul\":3472:3478   */\n      0x00\n        /* \"#utility.yul\":3499:3519   */\n      tag_111\n      tag_36\n      jump\t// in\n    tag_111:\n        /* \"#utility.yul\":3489:3519   */\n      swap1\n      pop\n        /* \"#utility.yul\":3528:3561   */\n      tag_112\n        /* \"#utility.yul\":3556:3560   */\n      dup3\n        /* \"#utility.yul\":3548:3554   */\n      dup3\n        /* \"#utility.yul\":3528:3561   */\n      tag_49\n      jump\t// in\n    tag_112:\n        /* \"#utility.yul\":3438:3567   */\n      swap2\n      swap1\n      pop\n      jump\t// out\n        /* \"#utility.yul\":3573:3881   */\n    tag_51:\n        /* \"#utility.yul\":3635:3639   */\n      0x00\n        /* \"#utility.yul\":3725:3743   */\n      0xffffffffffffffff\n        /* \"#utility.yul\":3717:3723   */\n      dup3\n        /* \"#utility.yul\":3714:3744   */\n      gt\n        /* \"#utility.yul\":3711:3767   */\n      iszero\n      tag_114\n      jumpi\n        /* \"#utility.yul\":3747:3765   */\n      tag_115\n      tag_48\n      jump\t// in\n    tag_115:\n        /* \"#utility.yul\":3711:3767   */\n    tag_114:\n        /* \"#utility.yul\":3785:3814   */\n      tag_116\n        /* \"#utility.yul\":3807:3813   */\n      dup3\n        /* \"#utility.yul\":3785:3814   */\n      tag_44\n      jump\t// in\n    tag_116:\n        /* \"#utility.yul\":3777:3814   */\n      swap1\n      pop\n        /* \"#utility.yul\":3869:3873   */\n      0x20\n        /* \"#utility.yul\":3863:3867   */\n      dup2\n        /* \"#utility.yul\":3859:3874   */\n      add\n        /* \"#utility.yul\":3851:3874   */\n      swap1\n      pop\n        /* \"#utility.yul\":3573:3881   */\n      swap2\n      swap1\n      pop\n      jump\t// out\n        /* \"#utility.yul\":3887:4033   */\n    tag_52:\n        /* \"#utility.yul\":3984:3990   */\n      dup3\n        /* \"#utility.yul\":3979:3982   */\n      dup2\n        /* \"#utility.yul\":3974:3977   */\n      dup4\n        /* \"#utility.yul\":3961:3991   */\n      calldatacopy\n        /* \"#utility.yul\":4025:4026   */\n      0x00\n        /* \"#utility.yul\":4016:4022   */\n      dup4\n        /* \"#utility.yul\":4011:4014   */\n      dup4\n        /* \"#utility.yul\":4007:4023   */\n      add\n        /* \"#utility.yul\":4000:4027   */\n      mstore\n        /* \"#utility.yul\":3887:4033   */\n      pop\n      pop\n      pop\n      jump\t// out\n        /* \"#utility.yul\":4039:4464   */\n    tag_53:\n        /* \"#utility.yul\":4117:4122   */\n      0x00\n        /* \"#utility.yul\":4142:4208   */\n      tag_119\n        /* \"#utility.yul\":4158:4207   */\n      tag_120\n        /* \"#utility.yul\":4200:4206   */\n      dup5\n        /* \"#utility.yul\":4158:4207   */\n      tag_51\n      jump\t// in\n    tag_120:\n        /* \"#utility.yul\":4142:4208   */\n      tag_50\n      jump\t// in\n    tag_119:\n        /* \"#utility.yul\":4133:4208   */\n      swap1\n      pop\n        /* \"#utility.yul\":4231:4237   */\n      dup3\n        /* \"#utility.yul\":4224:4229   */\n      dup2\n        /* \"#utility.yul\":4217:4238   */\n      mstore\n        /* \"#utility.yul\":4269:4273   */\n      0x20\n        /* \"#utility.yul\":4262:4267   */\n      dup2\n        /* \"#utility.yul\":4258:4274   */\n      add\n        /* \"#utility.yul\":4307:4310   */\n      dup5\n        /* \"#utility.yul\":4298:4304   */\n      dup5\n        /* \"#utility.yul\":4293:4296   */\n      dup5\n        /* \"#utility.yul\":4289:4305   */\n      add\n        /* \"#utility.yul\":4286:4311   */\n      gt\n        /* \"#utility.yul\":4283:4395   */\n      iszero\n      tag_121\n      jumpi\n        /* \"#utility.yul\":4314:4393   */\n      tag_122\n      tag_47\n      jump\t// in\n    tag_122:\n        /* \"#utility.yul\":4283:4395   */\n    tag_121:\n        /* \"#utility.yul\":4404:4458   */\n      tag_123\n        /* \"#utility.yul\":4451:4457   */\n      dup5\n        /* \"#utility.yul\":4446:4449   */\n      dup3\n        /* \"#utility.yul\":4441:4444   */\n      dup6\n        /* \"#utility.yul\":4404:4458   */\n      tag_52\n      jump\t// in\n    tag_123:\n        /* \"#utility.yul\":4123:4464   */\n      pop\n        /* \"#utility.yul\":4039:4464   */\n      swap4\n      swap3\n      pop\n      pop\n      pop\n      jump\t// out\n        /* \"#utility.yul\":4484:4824   */\n    tag_54:\n        /* \"#utility.yul\":4540:4545   */\n      0x00\n        /* \"#utility.yul\":4589:4592   */\n      dup3\n        /* \"#utility.yul\":4582:4586   */\n      0x1f\n        /* \"#utility.yul\":4574:4580   */\n      dup4\n        /* \"#utility.yul\":4570:4587   */\n      add\n        /* \"#utility.yul\":4566:4593   */\n      slt\n        /* \"#utility.yul\":4556:4678   */\n      tag_125\n      jumpi\n        /* \"#utility.yul\":4597:4676   */\n      tag_126\n      tag_46\n      jump\t// in\n    tag_126:\n        /* \"#utility.yul\":4556:4678   */\n    tag_125:\n        /* \"#utility.yul\":4714:4720   */\n      dup2\n        /* \"#utility.yul\":4701:4721   */\n      calldataload\n        /* \"#utility.yul\":4739:4818   */\n      tag_127\n        /* \"#utility.yul\":4814:4817   */\n      dup5\n        /* \"#utility.yul\":4806:4812   */\n      dup3\n        /* \"#utility.yul\":4799:4803   */\n      0x20\n        /* \"#utility.yul\":4791:4797   */\n      dup7\n        /* \"#utility.yul\":4787:4804   */\n      add\n        /* \"#utility.yul\":4739:4818   */\n      tag_53\n      jump\t// in\n    tag_127:\n        /* \"#utility.yul\":4730:4818   */\n      swap2\n      pop\n        /* \"#utility.yul\":4546:4824   */\n      pop\n        /* \"#utility.yul\":4484:4824   */\n      swap3\n      swap2\n      pop\n      pop\n      jump\t// out\n        /* \"#utility.yul\":4830:5484   */\n    tag_22:\n        /* \"#utility.yul\":4908:4914   */\n      0x00\n        /* \"#utility.yul\":4916:4922   */\n      dup1\n        /* \"#utility.yul\":4965:4967   */\n      0x40\n        /* \"#utility.yul\":4953:4962   */\n      dup4\n        /* \"#utility.yul\":4944:4951   */\n      dup6\n        /* \"#utility.yul\":4940:4963   */\n      sub\n        /* \"#utility.yul\":4936:4968   */\n      slt\n        /* \"#utility.yul\":4933:5052   */\n      iszero\n      tag_129\n      jumpi\n        /* \"#utility.yul\":4971:5050   */\n      tag_130\n      tag_37\n      jump\t// in\n    tag_130:\n        /* \"#utility.yul\":4933:5052   */\n    tag_129:\n        /* \"#utility.yul\":5091:5092   */\n      0x00\n        /* \"#utility.yul\":5116:5169   */\n      tag_131\n        /* \"#utility.yul\":5161:5168   */\n      dup6\n        /* \"#utility.yul\":5152:5158   */\n      dup3\n        /* \"#utility.yul\":5141:5150   */\n      dup7\n        /* \"#utility.yul\":5137:5159   */\n      add\n        /* \"#utility.yul\":5116:5169   */\n      tag_40\n      jump\t// in\n    tag_131:\n        /* \"#utility.yul\":5106:5169   */\n      swap3\n      pop\n        /* \"#utility.yul\":5062:5179   */\n      pop\n        /* \"#utility.yul\":5246:5248   */\n      0x20\n        /* \"#utility.yul\":5235:5244   */\n      dup4\n        /* \"#utility.yul\":5231:5249   */\n      add\n        /* \"#utility.yul\":5218:5250   */\n      calldataload\n        /* \"#utility.yul\":5277:5295   */\n      0xffffffffffffffff\n        /* \"#utility.yul\":5269:5275   */\n      dup2\n        /* \"#utility.yul\":5266:5296   */\n      gt\n        /* \"#utility.yul\":5263:5380   */\n      iszero\n      tag_132\n      jumpi\n        /* \"#utility.yul\":5299:5378   */\n      tag_133\n      tag_38\n      jump\t// in\n    tag_133:\n        /* \"#utility.yul\":5263:5380   */\n    tag_132:\n        /* \"#utility.yul\":5404:5467   */\n      tag_134\n        /* \"#utility.yul\":5459:5466   */\n      dup6\n        /* \"#utility.yul\":5450:5456   */\n      dup3\n        /* \"#utility.yul\":5439:5448   */\n      dup7\n        /* \"#utility.yul\":5435:5457   */\n      add\n        /* \"#utility.yul\":5404:5467   */\n      tag_54\n      jump\t// in\n    tag_134:\n        /* \"#utility.yul\":5394:5467   */\n      swap2\n      pop\n        /* \"#utility.yul\":5189:5477   */\n      pop\n        /* \"#utility.yul\":4830:5484   */\n      swap3\n      pop\n      swap3\n      swap1\n      pop\n      jump\t// out\n        /* \"#utility.yul\":5490:5670   */\n    tag_55:\n        /* \"#utility.yul\":5538:5615   */\n      0x4e487b7100000000000000000000000000000000000000000000000000000000\n        /* \"#utility.yul\":5535:5536   */\n      0x00\n        /* \"#utility.yul\":5528:5616   */\n      mstore\n        /* \"#utility.yul\":5635:5639   */\n      0x22\n        /* \"#utility.yul\":5632:5633   */\n      0x04\n        /* \"#utility.yul\":5625:5640   */\n      mstore\n        /* \"#utility.yul\":5659:5663   */\n      0x24\n        /* \"#utility.yul\":5656:5657   */\n      0x00\n        /* \"#utility.yul\":5649:5664   */\n      revert\n        /* \"#utility.yul\":5676:5996   */\n    tag_25:\n        /* \"#utility.yul\":5720:5726   */\n      0x00\n        /* \"#utility.yul\":5757:5758   */\n      0x02\n        /* \"#utility.yul\":5751:5755   */\n      dup3\n        /* \"#utility.yul\":5747:5759   */\n      div\n        /* \"#utility.yul\":5737:5759   */\n      swap1\n      pop\n        /* \"#utility.yul\":5804:5805   */\n      0x01\n        /* \"#utility.yul\":5798:5802   */\n      dup3\n        /* \"#utility.yul\":5794:5806   */\n      and\n        /* \"#utility.yul\":5825:5843   */\n      dup1\n        /* \"#utility.yul\":5815:5896   */\n      tag_137\n      jumpi\n        /* \"#utility.yul\":5881:5885   */\n      0x7f\n        /* \"#utility.yul\":5873:5879   */\n      dup3\n        /* \"#utility.yul\":5869:5886   */\n      and\n        /* \"#utility.yul\":5859:5886   */\n      swap2\n      pop\n        /* \"#utility.yul\":5815:5896   */\n    tag_137:\n        /* \"#utility.yul\":5943:5945   */\n      0x20\n        /* \"#utility.yul\":5935:5941   */\n      dup3\n        /* \"#utility.yul\":5932:5946   */\n      lt\n        /* \"#utility.yul\":5912:5930   */\n      dup2\n        /* \"#utility.yul\":5909:5947   */\n      sub\n        /* \"#utility.yul\":5906:5990   */\n      tag_138\n      jumpi\n        /* \"#utility.yul\":5962:5980   */\n      tag_139\n      tag_55\n      jump\t// in\n    tag_139:\n        /* \"#utility.yul\":5906:5990   */\n    tag_138:\n        /* \"#utility.yul\":5727:5996   */\n      pop\n        /* \"#utility.yul\":5676:5996   */\n      swap2\n      swap1\n      pop\n      jump\t// out\n        /* \"#utility.yul\":6002:6143   */\n    tag_56:\n        /* \"#utility.yul\":6051:6055   */\n      0x00\n        /* \"#utility.yul\":6074:6077   */\n      dup2\n        /* \"#utility.yul\":6066:6077   */\n      swap1\n      pop\n        /* \"#utility.yul\":6097:6100   */\n      dup2\n        /* \"#utility.yul\":6094:6095   */\n      0x00\n        /* \"#utility.yul\":6087:6101   */\n      mstore\n        /* \"#utility.yul\":6131:6135   */\n      0x20\n        /* \"#utility.yul\":6128:6129   */\n      0x00\n        /* \"#utility.yul\":6118:6136   */\n      keccak256\n        /* \"#utility.yul\":6110:6136   */\n      swap1\n      pop\n        /* \"#utility.yul\":6002:6143   */\n      swap2\n      swap1\n      pop\n      jump\t// out\n        /* \"#utility.yul\":6149:6242   */\n    tag_57:\n        /* \"#utility.yul\":6186:6192   */\n      0x00\n        /* \"#utility.yul\":6233:6235   */\n      0x20\n        /* \"#utility.yul\":6228:6230   */\n      0x1f\n        /* \"#utility.yul\":6221:6226   */\n      dup4\n        /* \"#utility.yul\":6217:6231   */\n      add\n        /* \"#utility.yul\":6213:6236   */\n      div\n        /* \"#utility.yul\":6203:6236   */\n      swap1\n      pop\n        /* \"#utility.yul\":6149:6242   */\n      swap2\n      swap1\n      pop\n      jump\t// out\n        /* \"#utility.yul\":6248:6355   */\n    tag_58:\n        /* \"#utility.yul\":6292:6300   */\n      0x00\n        /* \"#utility.yul\":6342:6347   */\n      dup3\n        /* \"#utility.yul\":6336:6340   */\n      dup3\n        /* \"#utility.yul\":6332:6348   */\n      shl\n        /* \"#utility.yul\":6311:6348   */\n      swap1\n      pop\n        /* \"#utility.yul\":6248:6355   */\n      swap3\n      swap2\n      pop\n      pop\n      jump\t// out\n        /* \"#utility.yul\":6361:6754   */\n    tag_59:\n        /* \"#utility.yul\":6430:6436   */\n      0x00\n        /* \"#utility.yul\":6480:6481   */\n      0x08\n        /* \"#utility.yul\":6468:6478   */\n      dup4\n        /* \"#utility.yul\":6464:6482   */\n      mul\n        /* \"#utility.yul\":6503:6600   */\n      tag_144\n        /* \"#utility.yul\":6533:6599   */\n      0xffffffffffffffffffffffffffffffffffffffffffffffffffffffffffffffff\n        /* \"#utility.yul\":6522:6531   */\n      dup3\n        /* \"#utility.yul\":6503:6600   */\n      tag_58\n      jump\t// in\n    tag_144:\n        /* \"#utility.yul\":6621:6660   */\n      tag_145\n        /* \"#utility.yul\":6651:6659   */\n      dup7\n        /* \"#utility.yul\":6640:6649   */\n      dup4\n        /* \"#utility.yul\":6621:6660   */\n      tag_58\n      jump\t// in\n    tag_145:\n        /* \"#utility.yul\":6609:6660   */\n      swap6\n      pop\n        /* \"#utility.yul\":6693:6697   */\n      dup1\n        /* \"#utility.yul\":6689:6698   */\n      not\n        /* \"#utility.yul\":6682:6687   */\n      dup5\n        /* \"#utility.yul\":6678:6699   */\n      and\n        /* \"#utility.yul\":6669:6699   */\n      swap4\n      pop\n        /* \"#utility.yul\":6742:6746   */\n      dup1\n        /* \"#utility.yul\":6732:6740   */\n      dup7\n        /* \"#utility.yul\":6728:6747   */\n      and\n        /* \"#utility.yul\":6721:6726   */\n      dup5\n        /* \"#utility.yul\":6718:6748   */\n      or\n        /* \"#utility.yul\":6708:6748   */\n      swap3\n      pop\n        /* \"#utility.yul\":6437:6754   */\n      pop\n      pop\n        /* \"#utility.yul\":6361:6754   */\n      swap4\n      swap3\n      pop\n      pop\n      pop\n      jump\t// out\n        /* \"#utility.yul\":6760:6820   */\n    tag_60:\n        /* \"#utility.yul\":6788:6791   */\n      0x00\n        /* \"#utility.yul\":6809:6814   */\n      dup2\n        /* \"#utility.yul\":6802:6814   */\n      swap1\n      pop\n        /* \"#utility.yul\":6760:6820   */\n      swap2\n      swap1\n      pop\n      jump\t// out\n        /* \"#utility.yul\":6826:6968   */\n    tag_61:\n        /* \"#utility.yul\":6876:6885   */\n      0x00\n        /* \"#utility.yul\":6909:6962   */\n      tag_148\n        /* \"#utility.yul\":6927:6961   */\n      tag_149\n        /* \"#utility.yul\":6936:6960   */\n      tag_150\n        /* \"#utility.yul\":6954:6959   */\n      dup5\n        /* \"#utility.yul\":6936:6960   */\n      tag_34\n      jump\t// in\n    tag_150:\n        /* \"#utility.yul\":6927:6961   */\n      tag_60\n      jump\t// in\n    tag_149:\n        /* \"#utility.yul\":6909:6962   */\n      tag_34\n      jump\t// in\n    tag_148:\n        /* \"#utility.yul\":6896:6962   */\n      swap1\n      pop\n        /* \"#utility.yul\":6826:6968   */\n      swap2\n      swap1\n      pop\n      jump\t// out\n        /* \"#utility.yul\":6974:7049   */\n    tag_62:\n        /* \"#utility.yul\":7017:7020   */\n      0x00\n        /* \"#utility.yul\":7038:7043   */\n      dup2\n        /* \"#utility.yul\":7031:7043   */\n      swap1\n      pop\n        /* \"#utility.yul\":6974:7049   */\n      swap2\n      swap1\n      pop\n      jump\t// out\n        /* \"#utility.yul\":7055:7324   */\n    tag_63:\n        /* \"#utility.yul\":7165:7204   */\n      tag_153\n        /* \"#utility.yul\":7196:7203   */\n      dup4\n        /* \"#utility.yul\":7165:7204   */\n      tag_61\n      jump\t// in\n    tag_153:\n        /* \"#utility.yul\":7226:7317   */\n      tag_154\n        /* \"#utility.yul\":7275:7316   */\n      tag_155\n        /* \"#utility.yul\":7299:7315   */\n      dup3\n        /* \"#utility.yul\":7275:7316   */\n      tag_62\n      jump\t// in\n    tag_155:\n        /* \"#utility.yul\":7267:7273   */\n      dup5\n        /* \"#utility.yul\":7260:7264   */\n      dup5\n        /* \"#utility.yul\":7254:7265   */\n      sload\n        /* \"#utility.yul\":7226:7317   */\n      tag_59\n      jump\t// in\n    tag_154:\n        /* \"#utility.yul\":7220:7224   */\n      dup3\n        /* \"#utility.yul\":7213:7318   */\n      sstore\n        /* \"#utility.yul\":7131:7324   */\n      pop\n        /* \"#utility.yul\":7055:7324   */\n      pop\n      pop\n      pop\n      jump\t// out\n        /* \"#utility.yul\":7330:7403   */\n    tag_64:\n        /* \"#utility.yul\":7375:7378   */\n      0x00\n        /* \"#utility.yul\":7330:7403   */\n      swap1\n      jump\t// out\n        /* \"#utility.yul\":7409:7598   */\n    tag_65:\n        /* \"#utility.yul\":7486:7518   */\n      tag_158\n      tag_64\n      jump\t// in\n    tag_158:\n        /* \"#utility.yul\":7527:7592   */\n      tag_159\n        /* \"#utility.yul\":7585:7591   */\n      dup2\n        /* \"#utility.yul\":7577:7583   */\n      dup5\n        /* \"#utility.yul\":7571:7575   */\n      dup5\n        /* \"#utility.yul\":7527:7592   */\n      tag_63\n      jump\t// in\n    tag_159:\n        /* \"#utility.yul\":7462:7598   */\n      pop\n        /* \"#utility.yul\":7409:7598   */\n      pop\n      pop\n      jump\t// out\n        /* \"#utility.yul\":7604:7790   */\n    tag_66:\n        /* \"#utility.yul\":7664:7784   */\n    tag_161:\n        /* \"#utility.yul\":7681:7684   */\n      dup2\n        /* \"#utility.yul\":7674:7679   */\n      dup2\n        /* \"#utility.yul\":7671:7685   */\n      lt\n        /* \"#utility.yul\":7664:7784   */\n      iszero\n      tag_163\n      jumpi\n        /* \"#utility.yul\":7735:7774   */\n      tag_164\n        /* \"#utility.yul\":7772:7773   */\n      0x00\n        /* \"#utility.yul\":7765:7770   */\n      dup3\n        /* \"#utility.yul\":7735:7774   */\n      tag_65\n      jump\t// in\n    tag_164:\n        /* \"#utility.yul\":7708:7709   */\n      0x01\n        /* \"#utility.yul\":7701:7706   */\n      dup2\n        /* \"#utility.yul\":7697:7710   */\n      add\n        /* \"#utility.yul\":7688:7710   */\n      swap1\n      pop\n        /* \"#utility.yul\":7664:7784   */\n      jump(tag_161)\n    tag_163:\n        /* \"#utility.yul\":7604:7790   */\n      pop\n      pop\n      jump\t// out\n        /* \"#utility.yul\":7796:8339   */\n    tag_67:\n        /* \"#utility.yul\":7897:7899   */\n      0x1f\n        /* \"#utility.yul\":7892:7895   */\n      dup3\n        /* \"#utility.yul\":7889:7900   */\n      gt\n        /* \"#utility.yul\":7886:8332   */\n      iszero\n      tag_166\n      jumpi\n        /* \"#utility.yul\":7931:7969   */\n      tag_167\n        /* \"#utility.yul\":7963:7968   */\n      dup2\n        /* \"#utility.yul\":7931:7969   */\n      tag_56\n      jump\t// in\n    tag_167:\n        /* \"#utility.yul\":8015:8044   */\n      tag_168\n        /* \"#utility.yul\":8033:8043   */\n      dup5\n        /* \"#utility.yul\":8015:8044   */\n      tag_57\n      jump\t// in\n    tag_168:\n        /* \"#utility.yul\":8005:8013   */\n      dup2\n        /* \"#utility.yul\":8001:8045   */\n      add\n        /* \"#utility.yul\":8198:8200   */\n      0x20\n        /* \"#utility.yul\":8186:8196   */\n      dup6\n        /* \"#utility.yul\":8183:8201   */\n      lt\n        /* \"#utility.yul\":8180:8229   */\n      iszero\n      tag_169\n      jumpi\n        /* \"#utility.yul\":8219:8227   */\n      dup2\n        /* \"#utility.yul\":8204:8227   */\n      swap1\n      pop\n        /* \"#utility.yul\":8180:8229   */\n    tag_169:\n        /* \"#utility.yul\":8242:8322   */\n      tag_170\n        /* \"#utility.yul\":8298:8320   */\n      tag_171\n        /* \"#utility.yul\":8316:8319   */\n      dup6\n        /* \"#utility.yul\":8298:8320   */\n      tag_57\n      jump\t// in\n    tag_171:\n        /* \"#utility.yul\":8288:8296   */\n      dup4\n        /* \"#utility.yul\":8284:8321   */\n      add\n        /* \"#utility.yul\":8271:8282   */\n      dup3\n        /* \"#utility.yul\":8242:8322   */\n      tag_66\n      jump\t// in\n    tag_170:\n        /* \"#utility.yul\":7901:8332   */\n      pop\n      pop\n        /* \"#utility.yul\":7886:8332   */\n    tag_166:\n        /* \"#utility.yul\":7796:8339   */\n      pop\n      pop\n      pop\n      jump\t// out\n        /* \"#utility.yul\":8345:8462   */\n    tag_68:\n        /* \"#utility.yul\":8399:8407   */\n      0x00\n        /* \"#utility.yul\":8449:8454   */\n      dup3\n        /* \"#utility.yul\":8443:8447   */\n      dup3\n        /* \"#utility.yul\":8439:8455   */\n      shr\n        /* \"#utility.yul\":8418:8455   */\n      swap1\n      pop\n        /* \"#utility.yul\":8345:8462   */\n      swap3\n      swap2\n      pop\n      pop\n      jump\t// out\n        /* \"#utility.yul\":8468:8637   */\n    tag_69:\n        /* \"#utility.yul\":8512:8518   */\n      0x00\n        /* \"#utility.yul\":8545:8596   */\n      tag_174\n        /* \"#utility.yul\":8593:8594   */\n      0x00\n        /* \"#utility.yul\":8589:8595   */\n      not\n        /* \"#utility.yul\":8581:8586   */\n      dup5\n        /* \"#utility.yul\":8578:8579   */\n      0x08\n        /* \"#utility.yul\":8574:8587   */\n      mul\n        /* \"#utility.yul\":8545:8596   */\n      tag_68\n      jump\t// in\n    tag_174:\n        /* \"#utility.yul\":8541:8597   */\n      not\n        /* \"#utility.yul\":8626:8630   */\n      dup1\n        /* \"#utility.yul\":8620:8624   */\n      dup4\n        /* \"#utility.yul\":8616:8631   */\n      and\n        /* \"#utility.yul\":8606:8631   */\n      swap2\n      pop\n        /* \"#utility.yul\":8519:8637   */\n      pop\n        /* \"#utility.yul\":8468:8637   */\n      swap3\n      swap2\n      pop\n      pop\n      jump\t// out\n        /* \"#utility.yul\":8642:8937   */\n    tag_70:\n        /* \"#utility.yul\":8718:8722   */\n      0x00\n        /* \"#utility.yul\":8864:8893   */\n      tag_176\n        /* \"#utility.yul\":8889:8892   */\n      dup4\n        /* \"#utility.yul\":8883:8887   */\n      dup4\n        /* \"#utility.yul\":8864:8893   */\n      tag_69\n      jump\t// in\n    tag_176:\n        /* \"#utility.yul\":8856:8893   */\n      swap2\n      pop\n        /* \"#utility.yul\":8926:8929   */\n      dup3\n        /* \"#utility.yul\":8923:8924   */\n      0x02\n        /* \"#utility.yul\":8919:8930   */\n      mul\n        /* \"#utility.yul\":8913:8917   */\n      dup3\n        /* \"#utility.yul\":8910:8931   */\n      or\n        /* \"#utility.yul\":8902:8931   */\n      swap1\n      pop\n        /* \"#utility.yul\":8642:8937   */\n      swap3\n      swap2\n      pop\n      pop\n      jump\t// out\n        /* \"#utility.yul\":8942:10337   */\n    tag_33:\n        /* \"#utility.yul\":9059:9096   */\n      tag_178\n        /* \"#utility.yul\":9092:9095   */\n      dup3\n        /* \"#utility.yul\":9059:9096   */\n      tag_41\n      jump\t// in\n    tag_178:\n        /* \"#utility.yul\":9161:9179   */\n      0xffffffffffffffff\n        /* \"#utility.yul\":9153:9159   */\n      dup2\n        /* \"#utility.yul\":9150:9180   */\n      gt\n        /* \"#utility.yul\":9147:9203   */\n      iszero\n      tag_179\n      jumpi\n        /* \"#utility.yul\":9183:9201   */\n      tag_180\n      tag_48\n      jump\t// in\n    tag_180:\n        /* \"#utility.yul\":9147:9203   */\n    tag_179:\n        /* \"#utility.yul\":9227:9265   */\n      tag_181\n        /* \"#utility.yul\":9259:9263   */\n      dup3\n        /* \"#utility.yul\":9253:9264   */\n      sload\n        /* \"#utility.yul\":9227:9265   */\n      tag_25\n      jump\t// in\n    tag_181:\n        /* \"#utility.yul\":9312:9379   */\n      tag_182\n        /* \"#utility.yul\":9372:9378   */\n      dup3\n        /* \"#utility.yul\":9364:9370   */\n      dup3\n        /* \"#utility.yul\":9358:9362   */\n      dup6\n        /* \"#utility.yul\":9312:9379   */\n      tag_67\n      jump\t// in\n    tag_182:\n        /* \"#utility.yul\":9406:9407   */\n      0x00\n        /* \"#utility.yul\":9430:9434   */\n      0x20\n        /* \"#utility.yul\":9417:9434   */\n      swap1\n      pop\n        /* \"#utility.yul\":9462:9464   */\n      0x1f\n        /* \"#utility.yul\":9454:9460   */\n      dup4\n        /* \"#utility.yul\":9451:9465   */\n      gt\n        /* \"#utility.yul\":9479:9480   */\n      0x01\n        /* \"#utility.yul\":9474:10092   */\n      dup2\n      eq\n      tag_184\n      jumpi\n        /* \"#utility.yul\":10136:10137   */\n      0x00\n        /* \"#utility.yul\":10153:10159   */\n      dup5\n        /* \"#utility.yul\":10150:10227   */\n      iszero\n      tag_185\n      jumpi\n        /* \"#utility.yul\":10202:10211   */\n      dup3\n        /* \"#utility.yul\":10197:10200   */\n      dup8\n        /* \"#utility.yul\":10193:10212   */\n      add\n        /* \"#utility.yul\":10187:10213   */\n      mload\n        /* \"#utility.yul\":10178:10213   */\n      swap1\n      pop\n        /* \"#utility.yul\":10150:10227   */\n    tag_185:\n        /* \"#utility.yul\":10253:10320   */\n      tag_186\n        /* \"#utility.yul\":10313:10319   */\n      dup6\n        /* \"#utility.yul\":10306:10311   */\n      dup3\n        /* \"#utility.yul\":10253:10320   */\n      tag_70\n      jump\t// in\n    tag_186:\n        /* \"#utility.yul\":10247:10251   */\n      dup7\n        /* \"#utility.yul\":10240:10321   */\n      sstore\n        /* \"#utility.yul\":10109:10331   */\n      pop\n        /* \"#utility.yul\":9444:10331   */\n      jump(tag_183)\n        /* \"#utility.yul\":9474:10092   */\n    tag_184:\n        /* \"#utility.yul\":9526:9530   */\n      0x1f\n        /* \"#utility.yul\":9522:9531   */\n      not\n        /* \"#utility.yul\":9514:9520   */\n      dup5\n        /* \"#utility.yul\":9510:9532   */\n      and\n        /* \"#utility.yul\":9560:9597   */\n      tag_187\n        /* \"#utility.yul\":9592:9596   */\n      dup7\n        /* \"#utility.yul\":9560:9597   */\n      tag_56\n      jump\t// in\n    tag_187:\n        /* \"#utility.yul\":9619:9620   */\n      0x00\n        /* \"#utility.yul\":9633:9841   */\n    tag_188:\n        /* \"#utility.yul\":9647:9654   */\n      dup3\n        /* \"#utility.yul\":9644:9645   */\n      dup2\n        /* \"#utility.yul\":9641:9655   */\n      lt\n        /* \"#utility.yul\":9633:9841   */\n      iszero\n      tag_190\n      jumpi\n        /* \"#utility.yul\":9726:9735   */\n      dup5\n        /* \"#utility.yul\":9721:9724   */\n      dup10\n        /* \"#utility.yul\":9717:9736   */\n      add\n        /* \"#utility.yul\":9711:9737   */\n      mload\n        /* \"#utility.yul\":9703:9709   */\n      dup3\n        /* \"#utility.yul\":9696:9738   */\n      sstore\n        /* \"#utility.yul\":9777:9778   */\n      0x01\n        /* \"#utility.yul\":9769:9775   */\n      dup3\n        /* \"#utility.yul\":9765:9779   */\n      add\n        /* \"#utility.yul\":9755:9779   */\n      swap2\n      pop\n        /* \"#utility.yul\":9824:9826   */\n      0x20\n        /* \"#utility.yul\":9813:9822   */\n      dup6\n        /* \"#utility.yul\":9809:9827   */\n      add\n        /* \"#utility.yul\":9796:9827   */\n      swap5\n      pop\n        /* \"#utility.yul\":9670:9674   */\n      0x20\n        /* \"#utility.yul\":9667:9668   */\n      dup2\n        /* \"#utility.yul\":9663:9675   */\n      add\n        /* \"#utility.yul\":9658:9675   */\n      swap1\n      pop\n        /* \"#utility.yul\":9633:9841   */\n      jump(tag_188)\n    tag_190:\n        /* \"#utility.yul\":9869:9875   */\n      dup7\n        /* \"#utility.yul\":9860:9867   */\n      dup4\n        /* \"#utility.yul\":9857:9876   */\n      lt\n        /* \"#utility.yul\":9854:10033   */\n      iszero\n      tag_191\n      jumpi\n        /* \"#utility.yul\":9927:9936   */\n      dup5\n        /* \"#utility.yul\":9922:9925   */\n      dup10\n        /* \"#utility.yul\":9918:9937   */\n      add\n        /* \"#utility.yul\":9912:9938   */\n      mload\n        /* \"#utility.yul\":9970:10018   */\n      tag_192\n        /* \"#utility.yul\":10012:10016   */\n      0x1f\n        /* \"#utility.yul\":10004:10010   */\n      dup10\n        /* \"#utility.yul\":10000:10017   */\n      and\n        /* \"#utility.yul\":9989:9998   */\n      dup3\n        /* \"#utility.yul\":9970:10018   */\n      tag_69\n      jump\t// in\n    tag_192:\n        /* \"#utility.yul\":9962:9968   */\n      dup4\n        /* \"#utility.yul\":9955:10019   */\n      sstore\n        /* \"#utility.yul\":9877:10033   */\n      pop\n        /* \"#utility.yul\":9854:10033   */\n    tag_191:\n        /* \"#utility.yul\":10079:10080   */\n      0x01\n        /* \"#utility.yul\":10075:10076   */\n      0x02\n        /* \"#utility.yul\":10067:10073   */\n      dup9\n        /* \"#utility.yul\":10063:10077   */\n      mul\n        /* \"#utility.yul\":10059:10081   */\n      add\n        /* \"#utility.yul\":10053:10057   */\n      dup9\n        /* \"#utility.yul\":10046:10082   */\n      sstore\n        /* \"#utility.yul\":9481:10092   */\n      pop\n      pop\n      pop\n        /* \"#utility.yul\":9444:10331   */\n    tag_183:\n      pop\n        /* \"#utility.yul\":9034:10337   */\n      pop\n      pop\n      pop\n        /* \"#utility.yul\":8942:10337   */\n      pop\n      pop\n      jump\t// out\n\n    auxdata: 0xa2646970667358221220dd16354d123325e7acb6e3624b951f726414ca356e0b62f436fb93f1d05402f164736f6c63430008110033\n}\n",
				"bytecode": {
					"linkReferences": {},
					"object": "608060405234801561001057600080fd5b506040516108613803806108618339818101604052810190610032919061007a565b80600181905550506100a7565b600080fd5b6000819050919050565b61005781610044565b811461006257600080fd5b50565b6000815190506100748161004e565b92915050565b6000602082840312156100905761008f61003f565b5b600061009e84828501610065565b91505092915050565b6107ab806100b66000396000f3fe608060405234801561001057600080fd5b506004361061004c5760003560e01c806306661abd14610051578063898786ac1461006f578063975057e71461009f578063bcb131c9146100bd575b600080fd5b6100596100d9565b60405161006691906101cc565b60405180910390f35b61008960048036038101906100849190610227565b6100df565b60405161009691906102e4565b60405180910390f35b6100a761017f565b6040516100b491906101cc565b60405180910390f35b6100d760048036038101906100d2919061043b565b61018e565b005b60015481565b600260205280600052604060002060009150905080546100fe906104c6565b80601f016020809104026020016040519081016040528092919081815260200182805461012a906104c6565b80156101775780601f1061014c57610100808354040283529160200191610177565b820191906000526020600020905b81548152906001019060200180831161015a57829003601f168201915b505050505081565b6000806107d290508091505090565b806002600084815260200190815260200160002090816101ae91906106a3565b505050565b6000819050919050565b6101c6816101b3565b82525050565b60006020820190506101e160008301846101bd565b92915050565b6000604051905090565b600080fd5b600080fd5b610204816101b3565b811461020f57600080fd5b50565b600081359050610221816101fb565b92915050565b60006020828403121561023d5761023c6101f1565b5b600061024b84828501610212565b91505092915050565b600081519050919050565b600082825260208201905092915050565b60005b8381101561028e578082015181840152602081019050610273565b60008484015250505050565b6000601f19601f8301169050919050565b60006102b682610254565b6102c0818561025f565b93506102d0818560208601610270565b6102d98161029a565b840191505092915050565b600060208201905081810360008301526102fe81846102ab565b905092915050565b600080fd5b600080fd5b7f4e487b7100000000000000000000000000000000000000000000000000000000600052604160045260246000fd5b6103488261029a565b810181811067ffffffffffffffff8211171561036757610366610310565b5b80604052505050565b600061037a6101e7565b9050610386828261033f565b919050565b600067ffffffffffffffff8211156103a6576103a5610310565b5b6103af8261029a565b9050602081019050919050565b82818337600083830152505050565b60006103de6103d98461038b565b610370565b9050828152602081018484840111156103fa576103f961030b565b5b6104058482856103bc565b509392505050565b600082601f83011261042257610421610306565b5b81356104328482602086016103cb565b91505092915050565b60008060408385031215610452576104516101f1565b5b600061046085828601610212565b925050602083013567ffffffffffffffff811115610481576104806101f6565b5b61048d8582860161040d565b9150509250929050565b7f4e487b7100000000000000000000000000000000000000000000000000000000600052602260045260246000fd5b600060028204905060018216806104de57607f821691505b6020821081036104f1576104f0610497565b5b50919050565b60008190508160005260206000209050919050565b60006020601f8301049050919050565b600082821b905092915050565b6000600883026105597fffffffffffffffffffffffffffffffffffffffffffffffffffffffffffffffff8261051c565b610563868361051c565b95508019841693508086168417925050509392505050565b6000819050919050565b60006105a061059b610596846101b3565b61057b565b6101b3565b9050919050565b6000819050919050565b6105ba83610585565b6105ce6105c6826105a7565b848454610529565b825550505050565b600090565b6105e36105d6565b6105ee8184846105b1565b505050565b5b81811015610612576106076000826105db565b6001810190506105f4565b5050565b601f82111561065757610628816104f7565b6106318461050c565b81016020851015610640578190505b61065461064c8561050c565b8301826105f3565b50505b505050565b600082821c905092915050565b600061067a6000198460080261065c565b1980831691505092915050565b60006106938383610669565b9150826002028217905092915050565b6106ac82610254565b67ffffffffffffffff8111156106c5576106c4610310565b5b6106cf82546104c6565b6106da828285610616565b600060209050601f83116001811461070d57600084156106fb578287015190505b6107058582610687565b86555061076d565b601f19841661071b866104f7565b60005b828110156107435784890151825560018201915060208501945060208101905061071e565b86831015610760578489015161075c601f891682610669565b8355505b6001600288020188555050505b50505050505056fea2646970667358221220dd16354d123325e7acb6e3624b951f726414ca356e0b62f436fb93f1d05402f164736f6c63430008110033",
					"opcodes": "PUSH1 0x80 PUSH1 0x40 MSTORE CALLVALUE DUP1 ISZERO PUSH2 0x10 JUMPI PUSH1 0x0 DUP1 REVERT JUMPDEST POP PUSH1 0x40 MLOAD PUSH2 0x861 CODESIZE SUB DUP1 PUSH2 0x861 DUP4 CODECOPY DUP2 DUP2 ADD PUSH1 0x40 MSTORE DUP2 ADD SWAP1 PUSH2 0x32 SWAP2 SWAP1 PUSH2 0x7A JUMP JUMPDEST DUP1 PUSH1 0x1 DUP2 SWAP1 SSTORE POP POP PUSH2 0xA7 JUMP JUMPDEST PUSH1 0x0 DUP1 REVERT JUMPDEST PUSH1 0x0 DUP2 SWAP1 POP SWAP2 SWAP1 POP JUMP JUMPDEST PUSH2 0x57 DUP2 PUSH2 0x44 JUMP JUMPDEST DUP2 EQ PUSH2 0x62 JUMPI PUSH1 0x0 DUP1 REVERT JUMPDEST POP JUMP JUMPDEST PUSH1 0x0 DUP2 MLOAD SWAP1 POP PUSH2 0x74 DUP2 PUSH2 0x4E JUMP JUMPDEST SWAP3 SWAP2 POP POP JUMP JUMPDEST PUSH1 0x0 PUSH1 0x20 DUP3 DUP5 SUB SLT ISZERO PUSH2 0x90 JUMPI PUSH2 0x8F PUSH2 0x3F JUMP JUMPDEST JUMPDEST PUSH1 0x0 PUSH2 0x9E DUP5 DUP3 DUP6 ADD PUSH2 0x65 JUMP JUMPDEST SWAP2 POP POP SWAP3 SWAP2 POP POP JUMP JUMPDEST PUSH2 0x7AB DUP1 PUSH2 0xB6 PUSH1 0x0 CODECOPY PUSH1 0x0 RETURN INVALID PUSH1 0x80 PUSH1 0x40 MSTORE CALLVALUE DUP1 ISZERO PUSH2 0x10 JUMPI PUSH1 0x0 DUP1 REVERT JUMPDEST POP PUSH1 0x4 CALLDATASIZE LT PUSH2 0x4C JUMPI PUSH1 0x0 CALLDATALOAD PUSH1 0xE0 SHR DUP1 PUSH4 0x6661ABD EQ PUSH2 0x51 JUMPI DUP1 PUSH4 0x898786AC EQ PUSH2 0x6F JUMPI DUP1 PUSH4 0x975057E7 EQ PUSH2 0x9F JUMPI DUP1 PUSH4 0xBCB131C9 EQ PUSH2 0xBD JUMPI JUMPDEST PUSH1 0x0 DUP1 REVERT JUMPDEST PUSH2 0x59 PUSH2 0xD9 JUMP JUMPDEST PUSH1 0x40 MLOAD PUSH2 0x66 SWAP2 SWAP1 PUSH2 0x1CC JUMP JUMPDEST PUSH1 0x40 MLOAD DUP1 SWAP2 SUB SWAP1 RETURN JUMPDEST PUSH2 0x89 PUSH1 0x4 DUP1 CALLDATASIZE SUB DUP2 ADD SWAP1 PUSH2 0x84 SWAP2 SWAP1 PUSH2 0x227 JUMP JUMPDEST PUSH2 0xDF JUMP JUMPDEST PUSH1 0x40 MLOAD PUSH2 0x96 SWAP2 SWAP1 PUSH2 0x2E4 JUMP JUMPDEST PUSH1 0x40 MLOAD DUP1 SWAP2 SUB SWAP1 RETURN JUMPDEST PUSH2 0xA7 PUSH2 0x17F JUMP JUMPDEST PUSH1 0x40 MLOAD PUSH2 0xB4 SWAP2 SWAP1 PUSH2 0x1CC JUMP JUMPDEST PUSH1 0x40 MLOAD DUP1 SWAP2 SUB SWAP1 RETURN JUMPDEST PUSH2 0xD7 PUSH1 0x4 DUP1 CALLDATASIZE SUB DUP2 ADD SWAP1 PUSH2 0xD2 SWAP2 SWAP1 PUSH2 0x43B JUMP JUMPDEST PUSH2 0x18E JUMP JUMPDEST STOP JUMPDEST PUSH1 0x1 SLOAD DUP2 JUMP JUMPDEST PUSH1 0x2 PUSH1 0x20 MSTORE DUP1 PUSH1 0x0 MSTORE PUSH1 0x40 PUSH1 0x0 KECCAK256 PUSH1 0x0 SWAP2 POP SWAP1 POP DUP1 SLOAD PUSH2 0xFE SWAP1 PUSH2 0x4C6 JUMP JUMPDEST DUP1 PUSH1 0x1F ADD PUSH1 0x20 DUP1 SWAP2 DIV MUL PUSH1 0x20 ADD PUSH1 0x40 MLOAD SWAP1 DUP2 ADD PUSH1 0x40 MSTORE DUP1 SWAP3 SWAP2 SWAP1 DUP2 DUP2 MSTORE PUSH1 0x20 ADD DUP3 DUP1 SLOAD PUSH2 0x12A SWAP1 PUSH2 0x4C6 JUMP JUMPDEST DUP1 ISZERO PUSH2 0x177 JUMPI DUP1 PUSH1 0x1F LT PUSH2 0x14C JUMPI PUSH2 0x100 DUP1 DUP4 SLOAD DIV MUL DUP4 MSTORE SWAP2 PUSH1 0x20 ADD SWAP2 PUSH2 0x177 JUMP JUMPDEST DUP3 ADD SWAP2 SWAP1 PUSH1 0x0 MSTORE PUSH1 0x20 PUSH1 0x0 KECCAK256 SWAP1 JUMPDEST DUP2 SLOAD DUP2 MSTORE SWAP1 PUSH1 0x1 ADD SWAP1 PUSH1 0x20 ADD DUP1 DUP4 GT PUSH2 0x15A JUMPI DUP3 SWAP1 SUB PUSH1 0x1F AND DUP3 ADD SWAP2 JUMPDEST POP POP POP POP POP DUP2 JUMP JUMPDEST PUSH1 0x0 DUP1 PUSH2 0x7D2 SWAP1 POP DUP1 SWAP2 POP POP SWAP1 JUMP JUMPDEST DUP1 PUSH1 0x2 PUSH1 0x0 DUP5 DUP2 MSTORE PUSH1 0x20 ADD SWAP1 DUP2 MSTORE PUSH1 0x20 ADD PUSH1 0x0 KECCAK256 SWAP1 DUP2 PUSH2 0x1AE SWAP2 SWAP1 PUSH2 0x6A3 JUMP JUMPDEST POP POP POP JUMP JUMPDEST PUSH1 0x0 DUP2 SWAP1 POP SWAP2 SWAP1 POP JUMP JUMPDEST PUSH2 0x1C6 DUP2 PUSH2 0x1B3 JUMP JUMPDEST DUP3 MSTORE POP POP JUMP JUMPDEST PUSH1 0x0 PUSH1 0x20 DUP3 ADD SWAP1 POP PUSH2 0x1E1 PUSH1 0x0 DUP4 ADD DUP5 PUSH2 0x1BD JUMP JUMPDEST SWAP3 SWAP2 POP POP JUMP JUMPDEST PUSH1 0x0 PUSH1 0x40 MLOAD SWAP1 POP SWAP1 JUMP JUMPDEST PUSH1 0x0 DUP1 REVERT JUMPDEST PUSH1 0x0 DUP1 REVERT JUMPDEST PUSH2 0x204 DUP2 PUSH2 0x1B3 JUMP JUMPDEST DUP2 EQ PUSH2 0x20F JUMPI PUSH1 0x0 DUP1 REVERT JUMPDEST POP JUMP JUMPDEST PUSH1 0x0 DUP2 CALLDATALOAD SWAP1 POP PUSH2 0x221 DUP2 PUSH2 0x1FB JUMP JUMPDEST SWAP3 SWAP2 POP POP JUMP JUMPDEST PUSH1 0x0 PUSH1 0x20 DUP3 DUP5 SUB SLT ISZERO PUSH2 0x23D JUMPI PUSH2 0x23C PUSH2 0x1F1 JUMP JUMPDEST JUMPDEST PUSH1 0x0 PUSH2 0x24B DUP5 DUP3 DUP6 ADD PUSH2 0x212 JUMP JUMPDEST SWAP2 POP POP SWAP3 SWAP2 POP POP JUMP JUMPDEST PUSH1 0x0 DUP2 MLOAD SWAP1 POP SWAP2 SWAP1 POP JUMP JUMPDEST PUSH1 0x0 DUP3 DUP3 MSTORE PUSH1 0x20 DUP3 ADD SWAP1 POP SWAP3 SWAP2 POP POP JUMP JUMPDEST PUSH1 0x0 JUMPDEST DUP4 DUP2 LT ISZERO PUSH2 0x28E JUMPI DUP1 DUP3 ADD MLOAD DUP2 DUP5 ADD MSTORE PUSH1 0x20 DUP2 ADD SWAP1 POP PUSH2 0x273 JUMP JUMPDEST PUSH1 0x0 DUP5 DUP5 ADD MSTORE POP POP POP POP JUMP JUMPDEST PUSH1 0x0 PUSH1 0x1F NOT PUSH1 0x1F DUP4 ADD AND SWAP1 POP SWAP2 SWAP1 POP JUMP JUMPDEST PUSH1 0x0 PUSH2 0x2B6 DUP3 PUSH2 0x254 JUMP JUMPDEST PUSH2 0x2C0 DUP2 DUP6 PUSH2 0x25F JUMP JUMPDEST SWAP4 POP PUSH2 0x2D0 DUP2 DUP6 PUSH1 0x20 DUP7 ADD PUSH2 0x270 JUMP JUMPDEST PUSH2 0x2D9 DUP2 PUSH2 0x29A JUMP JUMPDEST DUP5 ADD SWAP2 POP POP SWAP3 SWAP2 POP POP JUMP JUMPDEST PUSH1 0x0 PUSH1 0x20 DUP3 ADD SWAP1 POP DUP2 DUP2 SUB PUSH1 0x0 DUP4 ADD MSTORE PUSH2 0x2FE DUP2 DUP5 PUSH2 0x2AB JUMP JUMPDEST SWAP1 POP SWAP3 SWAP2 POP POP JUMP JUMPDEST PUSH1 0x0 DUP1 REVERT JUMPDEST PUSH1 0x0 DUP1 REVERT JUMPDEST PUSH32 0x4E487B7100000000000000000000000000000000000000000000000000000000 PUSH1 0x0 MSTORE PUSH1 0x41 PUSH1 0x4 MSTORE PUSH1 0x24 PUSH1 0x0 REVERT JUMPDEST PUSH2 0x348 DUP3 PUSH2 0x29A JUMP JUMPDEST DUP2 ADD DUP2 DUP2 LT PUSH8 0xFFFFFFFFFFFFFFFF DUP3 GT OR ISZERO PUSH2 0x367 JUMPI PUSH2 0x366 PUSH2 0x310 JUMP JUMPDEST JUMPDEST DUP1 PUSH1 0x40 MSTORE POP POP POP JUMP JUMPDEST PUSH1 0x0 PUSH2 0x37A PUSH2 0x1E7 JUMP JUMPDEST SWAP1 POP PUSH2 0x386 DUP3 DUP3 PUSH2 0x33F JUMP JUMPDEST SWAP2 SWAP1 POP JUMP JUMPDEST PUSH1 0x0 PUSH8 0xFFFFFFFFFFFFFFFF DUP3 GT ISZERO PUSH2 0x3A6 JUMPI PUSH2 0x3A5 PUSH2 0x310 JUMP JUMPDEST JUMPDEST PUSH2 0x3AF DUP3 PUSH2 0x29A JUMP JUMPDEST SWAP1 POP PUSH1 0x20 DUP2 ADD SWAP1 POP SWAP2 SWAP1 POP JUMP JUMPDEST DUP3 DUP2 DUP4 CALLDATACOPY PUSH1 0x0 DUP4 DUP4 ADD MSTORE POP POP POP JUMP JUMPDEST PUSH1 0x0 PUSH2 0x3DE PUSH2 0x3D9 DUP5 PUSH2 0x38B JUMP JUMPDEST PUSH2 0x370 JUMP JUMPDEST SWAP1 POP DUP3 DUP2 MSTORE PUSH1 0x20 DUP2 ADD DUP5 DUP5 DUP5 ADD GT ISZERO PUSH2 0x3FA JUMPI PUSH2 0x3F9 PUSH2 0x30B JUMP JUMPDEST JUMPDEST PUSH2 0x405 DUP5 DUP3 DUP6 PUSH2 0x3BC JUMP JUMPDEST POP SWAP4 SWAP3 POP POP POP JUMP JUMPDEST PUSH1 0x0 DUP3 PUSH1 0x1F DUP4 ADD SLT PUSH2 0x422 JUMPI PUSH2 0x421 PUSH2 0x306 JUMP JUMPDEST JUMPDEST DUP2 CALLDATALOAD PUSH2 0x432 DUP5 DUP3 PUSH1 0x20 DUP7 ADD PUSH2 0x3CB JUMP JUMPDEST SWAP2 POP POP SWAP3 SWAP2 POP POP JUMP JUMPDEST PUSH1 0x0 DUP1 PUSH1 0x40 DUP4 DUP6 SUB SLT ISZERO PUSH2 0x452 JUMPI PUSH2 0x451 PUSH2 0x1F1 JUMP JUMPDEST JUMPDEST PUSH1 0x0 PUSH2 0x460 DUP6 DUP3 DUP7 ADD PUSH2 0x212 JUMP JUMPDEST SWAP3 POP POP PUSH1 0x20 DUP4 ADD CALLDATALOAD PUSH8 0xFFFFFFFFFFFFFFFF DUP2 GT ISZERO PUSH2 0x481 JUMPI PUSH2 0x480 PUSH2 0x1F6 JUMP JUMPDEST JUMPDEST PUSH2 0x48D DUP6 DUP3 DUP7 ADD PUSH2 0x40D JUMP JUMPDEST SWAP2 POP POP SWAP3 POP SWAP3 SWAP1 POP JUMP JUMPDEST PUSH32 0x4E487B7100000000000000000000000000000000000000000000000000000000 PUSH1 0x0 MSTORE PUSH1 0x22 PUSH1 0x4 MSTORE PUSH1 0x24 PUSH1 0x0 REVERT JUMPDEST PUSH1 0x0 PUSH1 0x2 DUP3 DIV SWAP1 POP PUSH1 0x1 DUP3 AND DUP1 PUSH2 0x4DE JUMPI PUSH1 0x7F DUP3 AND SWAP2 POP JUMPDEST PUSH1 0x20 DUP3 LT DUP2 SUB PUSH2 0x4F1 JUMPI PUSH2 0x4F0 PUSH2 0x497 JUMP JUMPDEST JUMPDEST POP SWAP2 SWAP1 POP JUMP JUMPDEST PUSH1 0x0 DUP2 SWAP1 POP DUP2 PUSH1 0x0 MSTORE PUSH1 0x20 PUSH1 0x0 KECCAK256 SWAP1 POP SWAP2 SWAP1 POP JUMP JUMPDEST PUSH1 0x0 PUSH1 0x20 PUSH1 0x1F DUP4 ADD DIV SWAP1 POP SWAP2 SWAP1 POP JUMP JUMPDEST PUSH1 0x0 DUP3 DUP3 SHL SWAP1 POP SWAP3 SWAP2 POP POP JUMP JUMPDEST PUSH1 0x0 PUSH1 0x8 DUP4 MUL PUSH2 0x559 PUSH32 0xFFFFFFFFFFFFFFFFFFFFFFFFFFFFFFFFFFFFFFFFFFFFFFFFFFFFFFFFFFFFFFFF DUP3 PUSH2 0x51C JUMP JUMPDEST PUSH2 0x563 DUP7 DUP4 PUSH2 0x51C JUMP JUMPDEST SWAP6 POP DUP1 NOT DUP5 AND SWAP4 POP DUP1 DUP7 AND DUP5 OR SWAP3 POP POP POP SWAP4 SWAP3 POP POP POP JUMP JUMPDEST PUSH1 0x0 DUP2 SWAP1 POP SWAP2 SWAP1 POP JUMP JUMPDEST PUSH1 0x0 PUSH2 0x5A0 PUSH2 0x59B PUSH2 0x596 DUP5 PUSH2 0x1B3 JUMP JUMPDEST PUSH2 0x57B JUMP JUMPDEST PUSH2 0x1B3 JUMP JUMPDEST SWAP1 POP SWAP2 SWAP1 POP JUMP JUMPDEST PUSH1 0x0 DUP2 SWAP1 POP SWAP2 SWAP1 POP JUMP JUMPDEST PUSH2 0x5BA DUP4 PUSH2 0x585 JUMP JUMPDEST PUSH2 0x5CE PUSH2 0x5C6 DUP3 PUSH2 0x5A7 JUMP JUMPDEST DUP5 DUP5 SLOAD PUSH2 0x529 JUMP JUMPDEST DUP3 SSTORE POP POP POP POP JUMP JUMPDEST PUSH1 0x0 SWAP1 JUMP JUMPDEST PUSH2 0x5E3 PUSH2 0x5D6 JUMP JUMPDEST PUSH2 0x5EE DUP2 DUP5 DUP5 PUSH2 0x5B1 JUMP JUMPDEST POP POP POP JUMP JUMPDEST JUMPDEST DUP2 DUP2 LT ISZERO PUSH2 0x612 JUMPI PUSH2 0x607 PUSH1 0x0 DUP3 PUSH2 0x5DB JUMP JUMPDEST PUSH1 0x1 DUP2 ADD SWAP1 POP PUSH2 0x5F4 JUMP JUMPDEST POP POP JUMP JUMPDEST PUSH1 0x1F DUP3 GT ISZERO PUSH2 0x657 JUMPI PUSH2 0x628 DUP2 PUSH2 0x4F7 JUMP JUMPDEST PUSH2 0x631 DUP5 PUSH2 0x50C JUMP JUMPDEST DUP2 ADD PUSH1 0x20 DUP6 LT ISZERO PUSH2 0x640 JUMPI DUP2 SWAP1 POP JUMPDEST PUSH2 0x654 PUSH2 0x64C DUP6 PUSH2 0x50C JUMP JUMPDEST DUP4 ADD DUP3 PUSH2 0x5F3 JUMP JUMPDEST POP POP JUMPDEST POP POP POP JUMP JUMPDEST PUSH1 0x0 DUP3 DUP3 SHR SWAP1 POP SWAP3 SWAP2 POP POP JUMP JUMPDEST PUSH1 0x0 PUSH2 0x67A PUSH1 0x0 NOT DUP5 PUSH1 0x8 MUL PUSH2 0x65C JUMP JUMPDEST NOT DUP1 DUP4 AND SWAP2 POP POP SWAP3 SWAP2 POP POP JUMP JUMPDEST PUSH1 0x0 PUSH2 0x693 DUP4 DUP4 PUSH2 0x669 JUMP JUMPDEST SWAP2 POP DUP3 PUSH1 0x2 MUL DUP3 OR SWAP1 POP SWAP3 SWAP2 POP POP JUMP JUMPDEST PUSH2 0x6AC DUP3 PUSH2 0x254 JUMP JUMPDEST PUSH8 0xFFFFFFFFFFFFFFFF DUP2 GT ISZERO PUSH2 0x6C5 JUMPI PUSH2 0x6C4 PUSH2 0x310 JUMP JUMPDEST JUMPDEST PUSH2 0x6CF DUP3 SLOAD PUSH2 0x4C6 JUMP JUMPDEST PUSH2 0x6DA DUP3 DUP3 DUP6 PUSH2 0x616 JUMP JUMPDEST PUSH1 0x0 PUSH1 0x20 SWAP1 POP PUSH1 0x1F DUP4 GT PUSH1 0x1 DUP2 EQ PUSH2 0x70D JUMPI PUSH1 0x0 DUP5 ISZERO PUSH2 0x6FB JUMPI DUP3 DUP8 ADD MLOAD SWAP1 POP JUMPDEST PUSH2 0x705 DUP6 DUP3 PUSH2 0x687 JUMP JUMPDEST DUP7 SSTORE POP PUSH2 0x76D JUMP JUMPDEST PUSH1 0x1F NOT DUP5 AND PUSH2 0x71B DUP7 PUSH2 0x4F7 JUMP JUMPDEST PUSH1 0x0 JUMPDEST DUP3 DUP2 LT ISZERO PUSH2 0x743 JUMPI DUP5 DUP10 ADD MLOAD DUP3 SSTORE PUSH1 0x1 DUP3 ADD SWAP2 POP PUSH1 0x20 DUP6 ADD SWAP5 POP PUSH1 0x20 DUP2 ADD SWAP1 POP PUSH2 0x71E JUMP JUMPDEST DUP7 DUP4 LT ISZERO PUSH2 0x760 JUMPI DUP5 DUP10 ADD MLOAD PUSH2 0x75C PUSH1 0x1F DUP10 AND DUP3 PUSH2 0x669 JUMP JUMPDEST DUP4 SSTORE POP JUMPDEST PUSH1 0x1 PUSH1 0x2 DUP9 MUL ADD DUP9 SSTORE POP POP POP JUMPDEST POP POP POP POP POP POP JUMP INVALID LOG2 PUSH5 0x6970667358 0x22 SLT KECCAK256 0xDD AND CALLDATALOAD 0x4D SLT CALLER 0x25 0xE7 0xAC 0xB6 0xE3 PUSH3 0x4B951F PUSH19 0x6414CA356E0B62F436FB93F1D05402F164736F PUSH13 0x63430008110033000000000000 "
				},
				"gasEstimates": {
					"creation": {
						"codeDepositCost": "392600",
						"executionCost": "infinite",
						"totalCost": "infinite"
					},
					"external": {
						"count()": "2407",
						"roll_no(uint256)": "infinite",
						"setter(uint256,string)": "infinite",
						"store()": "372"
					}
				},
				"methodIdentifiers": {
					"count()": "06661abd",
					"roll_no(uint256)": "898786ac",
					"setter(uint256,string)": "bcb131c9",
					"store()": "975057e7"
				}
			},
			"storageLayout": {
				"storage": [
					{
						"astId": 3,
						"contract": "state.sol:demo",
						"label": "age",
						"offset": 0,
						"slot": "0",
						"type": "t_uint256"
					},
					{
						"astId": 5,
						"contract": "state.sol:demo",
						"label": "count",
						"offset": 0,
						"slot": "1",
						"type": "t_uint256"
					},
					{
						"astId": 31,
						"contract": "state.sol:demo",
						"label": "roll_no",
						"offset": 0,
						"slot": "2",
						"type": "t_mapping(t_uint256,t_string_storage)"
					}
				],
				"types": {
					"t_mapping(t_uint256,t_string_storage)": {
						"encoding": "mapping",
						"key": "t_uint256",
						"label": "mapping(uint256 => string)",
						"numberOfBytes": "32",
						"value": "t_string_storage"
					},
					"t_string_storage": {
						"encoding": "bytes",
						"label": "string",
						"numberOfBytes": "32"
					},
					"t_uint256": {
						"encoding": "inplace",
						"label": "uint256",
						"numberOfBytes": "32"
					}
				}
			},
			"userdoc": {
				"kind": "user",
				"methods": {},
				"version": 1
			}
		}
	}
}